{
  "contractName": "Consensus2021ChainlinkWeatherNFT",
  "abi": [
    {
      "inputs": [
        {
          "internalType": "address",
          "name": "_link",
          "type": "address"
        },
        {
          "internalType": "address",
          "name": "_weatherFeed",
          "type": "address"
        },
        {
          "internalType": "address",
          "name": "_oracle",
          "type": "address"
        },
        {
          "internalType": "bytes32",
          "name": "_jobId",
          "type": "bytes32"
        },
        {
          "internalType": "uint256",
          "name": "_fee",
          "type": "uint256"
        }
      ],
      "stateMutability": "nonpayable",
      "type": "constructor"
    },
    {
      "anonymous": false,
      "inputs": [
        {
          "indexed": true,
          "internalType": "address",
          "name": "owner",
          "type": "address"
        },
        {
          "indexed": true,
          "internalType": "address",
          "name": "approved",
          "type": "address"
        },
        {
          "indexed": true,
          "internalType": "uint256",
          "name": "tokenId",
          "type": "uint256"
        }
      ],
      "name": "Approval",
      "type": "event"
    },
    {
      "anonymous": false,
      "inputs": [
        {
          "indexed": true,
          "internalType": "address",
          "name": "owner",
          "type": "address"
        },
        {
          "indexed": true,
          "internalType": "address",
          "name": "operator",
          "type": "address"
        },
        {
          "indexed": false,
          "internalType": "bool",
          "name": "approved",
          "type": "bool"
        }
      ],
      "name": "ApprovalForAll",
      "type": "event"
    },
    {
      "anonymous": false,
      "inputs": [
        {
          "indexed": true,
          "internalType": "bytes32",
          "name": "id",
          "type": "bytes32"
        }
      ],
      "name": "ChainlinkCancelled",
      "type": "event"
    },
    {
      "anonymous": false,
      "inputs": [
        {
          "indexed": true,
          "internalType": "bytes32",
          "name": "id",
          "type": "bytes32"
        }
      ],
      "name": "ChainlinkFulfilled",
      "type": "event"
    },
    {
      "anonymous": false,
      "inputs": [
        {
          "indexed": true,
          "internalType": "bytes32",
          "name": "id",
          "type": "bytes32"
        }
      ],
      "name": "ChainlinkRequested",
      "type": "event"
    },
    {
      "anonymous": false,
      "inputs": [
        {
          "indexed": true,
          "internalType": "address",
          "name": "previousOwner",
          "type": "address"
        },
        {
          "indexed": true,
          "internalType": "address",
          "name": "newOwner",
          "type": "address"
        }
      ],
      "name": "OwnershipTransferred",
      "type": "event"
    },
    {
      "anonymous": false,
      "inputs": [
        {
          "indexed": true,
          "internalType": "address",
          "name": "from",
          "type": "address"
        },
        {
          "indexed": true,
          "internalType": "address",
          "name": "to",
          "type": "address"
        },
        {
          "indexed": true,
          "internalType": "uint256",
          "name": "tokenId",
          "type": "uint256"
        }
      ],
      "name": "Transfer",
      "type": "event"
    },
    {
      "anonymous": false,
      "inputs": [
        {
          "indexed": false,
          "internalType": "bytes32",
          "name": "requestId",
          "type": "bytes32"
        }
      ],
      "name": "attemptedPassword",
      "type": "event"
    },
    {
      "inputs": [
        {
          "internalType": "address",
          "name": "to",
          "type": "address"
        },
        {
          "internalType": "uint256",
          "name": "tokenId",
          "type": "uint256"
        }
      ],
      "name": "approve",
      "outputs": [],
      "stateMutability": "nonpayable",
      "type": "function"
    },
    {
      "inputs": [
        {
          "internalType": "address",
          "name": "owner",
          "type": "address"
        }
      ],
      "name": "balanceOf",
      "outputs": [
        {
          "internalType": "uint256",
          "name": "",
          "type": "uint256"
        }
      ],
      "stateMutability": "view",
      "type": "function",
      "constant": true
    },
    {
      "inputs": [],
      "name": "baseURI",
      "outputs": [
        {
          "internalType": "string",
          "name": "",
          "type": "string"
        }
      ],
      "stateMutability": "view",
      "type": "function",
      "constant": true
    },
    {
      "inputs": [],
      "name": "fee",
      "outputs": [
        {
          "internalType": "uint256",
          "name": "",
          "type": "uint256"
        }
      ],
      "stateMutability": "view",
      "type": "function",
      "constant": true
    },
    {
      "inputs": [
        {
          "internalType": "uint256",
          "name": "tokenId",
          "type": "uint256"
        }
      ],
      "name": "getApproved",
      "outputs": [
        {
          "internalType": "address",
          "name": "",
          "type": "address"
        }
      ],
      "stateMutability": "view",
      "type": "function",
      "constant": true
    },
    {
      "inputs": [
        {
          "internalType": "address",
          "name": "owner",
          "type": "address"
        },
        {
          "internalType": "address",
          "name": "operator",
          "type": "address"
        }
      ],
      "name": "isApprovedForAll",
      "outputs": [
        {
          "internalType": "bool",
          "name": "",
          "type": "bool"
        }
      ],
      "stateMutability": "view",
      "type": "function",
      "constant": true
    },
    {
      "inputs": [],
      "name": "jobId",
      "outputs": [
        {
          "internalType": "bytes32",
          "name": "",
          "type": "bytes32"
        }
      ],
      "stateMutability": "view",
      "type": "function",
      "constant": true
    },
    {
      "inputs": [],
      "name": "name",
      "outputs": [
        {
          "internalType": "string",
          "name": "",
          "type": "string"
        }
      ],
      "stateMutability": "view",
      "type": "function",
      "constant": true
    },
    {
      "inputs": [],
      "name": "oracle",
      "outputs": [
        {
          "internalType": "address",
          "name": "",
          "type": "address"
        }
      ],
      "stateMutability": "view",
      "type": "function",
      "constant": true
    },
    {
      "inputs": [],
      "name": "overRide",
      "outputs": [
        {
          "internalType": "bool",
          "name": "",
          "type": "bool"
        }
      ],
      "stateMutability": "view",
      "type": "function",
      "constant": true
    },
    {
      "inputs": [
        {
          "internalType": "uint256",
          "name": "",
          "type": "uint256"
        }
      ],
      "name": "overRideTokenIdToWeatherURI",
      "outputs": [
        {
          "internalType": "string",
          "name": "",
          "type": "string"
        }
      ],
      "stateMutability": "view",
      "type": "function",
      "constant": true
    },
    {
      "inputs": [],
      "name": "overRideWeather",
      "outputs": [
        {
          "internalType": "string",
          "name": "",
          "type": "string"
        }
      ],
      "stateMutability": "view",
      "type": "function",
      "constant": true
    },
    {
      "inputs": [],
      "name": "owner",
      "outputs": [
        {
          "internalType": "address",
          "name": "",
          "type": "address"
        }
      ],
      "stateMutability": "view",
      "type": "function",
      "constant": true
    },
    {
      "inputs": [
        {
          "internalType": "uint256",
          "name": "tokenId",
          "type": "uint256"
        }
      ],
      "name": "ownerOf",
      "outputs": [
        {
          "internalType": "address",
          "name": "",
          "type": "address"
        }
      ],
      "stateMutability": "view",
      "type": "function",
      "constant": true
    },
    {
      "inputs": [],
      "name": "renounceOwnership",
      "outputs": [],
      "stateMutability": "nonpayable",
      "type": "function"
    },
    {
      "inputs": [
        {
          "internalType": "bytes32",
          "name": "",
          "type": "bytes32"
        }
      ],
      "name": "requestIdToAttemptee",
      "outputs": [
        {
          "internalType": "address",
          "name": "",
          "type": "address"
        }
      ],
      "stateMutability": "view",
      "type": "function",
      "constant": true
    },
    {
      "inputs": [],
      "name": "response",
      "outputs": [
        {
          "internalType": "uint256",
          "name": "",
          "type": "uint256"
        }
      ],
      "stateMutability": "view",
      "type": "function",
      "constant": true
    },
    {
      "inputs": [
        {
          "internalType": "address",
          "name": "from",
          "type": "address"
        },
        {
          "internalType": "address",
          "name": "to",
          "type": "address"
        },
        {
          "internalType": "uint256",
          "name": "tokenId",
          "type": "uint256"
        }
      ],
      "name": "safeTransferFrom",
      "outputs": [],
      "stateMutability": "nonpayable",
      "type": "function"
    },
    {
      "inputs": [
        {
          "internalType": "address",
          "name": "from",
          "type": "address"
        },
        {
          "internalType": "address",
          "name": "to",
          "type": "address"
        },
        {
          "internalType": "uint256",
          "name": "tokenId",
          "type": "uint256"
        },
        {
          "internalType": "bytes",
          "name": "_data",
          "type": "bytes"
        }
      ],
      "name": "safeTransferFrom",
      "outputs": [],
      "stateMutability": "nonpayable",
      "type": "function"
    },
    {
      "inputs": [
        {
          "internalType": "address",
          "name": "operator",
          "type": "address"
        },
        {
          "internalType": "bool",
          "name": "approved",
          "type": "bool"
        }
      ],
      "name": "setApprovalForAll",
      "outputs": [],
      "stateMutability": "nonpayable",
      "type": "function"
    },
    {
      "inputs": [
        {
          "internalType": "bytes4",
          "name": "interfaceId",
          "type": "bytes4"
        }
      ],
      "name": "supportsInterface",
      "outputs": [
        {
          "internalType": "bool",
          "name": "",
          "type": "bool"
        }
      ],
      "stateMutability": "view",
      "type": "function",
      "constant": true
    },
    {
      "inputs": [],
      "name": "symbol",
      "outputs": [
        {
          "internalType": "string",
          "name": "",
          "type": "string"
        }
      ],
      "stateMutability": "view",
      "type": "function",
      "constant": true
    },
    {
      "inputs": [
        {
          "internalType": "uint256",
          "name": "index",
          "type": "uint256"
        }
      ],
      "name": "tokenByIndex",
      "outputs": [
        {
          "internalType": "uint256",
          "name": "",
          "type": "uint256"
        }
      ],
      "stateMutability": "view",
      "type": "function",
      "constant": true
    },
    {
      "inputs": [],
      "name": "tokenCounter",
      "outputs": [
        {
          "internalType": "uint256",
          "name": "",
          "type": "uint256"
        }
      ],
      "stateMutability": "view",
      "type": "function",
      "constant": true
    },
    {
      "inputs": [
        {
          "internalType": "uint256",
          "name": "",
          "type": "uint256"
        }
      ],
      "name": "tokenIdTaken",
      "outputs": [
        {
          "internalType": "bool",
          "name": "",
          "type": "bool"
        }
      ],
      "stateMutability": "view",
      "type": "function",
      "constant": true
    },
    {
      "inputs": [
        {
          "internalType": "address",
          "name": "owner",
          "type": "address"
        },
        {
          "internalType": "uint256",
          "name": "index",
          "type": "uint256"
        }
      ],
      "name": "tokenOfOwnerByIndex",
      "outputs": [
        {
          "internalType": "uint256",
          "name": "",
          "type": "uint256"
        }
      ],
      "stateMutability": "view",
      "type": "function",
      "constant": true
    },
    {
      "inputs": [],
      "name": "totalSupply",
      "outputs": [
        {
          "internalType": "uint256",
          "name": "",
          "type": "uint256"
        }
      ],
      "stateMutability": "view",
      "type": "function",
      "constant": true
    },
    {
      "inputs": [
        {
          "internalType": "address",
          "name": "from",
          "type": "address"
        },
        {
          "internalType": "address",
          "name": "to",
          "type": "address"
        },
        {
          "internalType": "uint256",
          "name": "tokenId",
          "type": "uint256"
        }
      ],
      "name": "transferFrom",
      "outputs": [],
      "stateMutability": "nonpayable",
      "type": "function"
    },
    {
      "inputs": [
        {
          "internalType": "address",
          "name": "newOwner",
          "type": "address"
        }
      ],
      "name": "transferOwnership",
      "outputs": [],
      "stateMutability": "nonpayable",
      "type": "function"
    },
    {
      "inputs": [],
      "name": "weatherFeedAddress",
      "outputs": [
        {
          "internalType": "address",
          "name": "",
          "type": "address"
        }
      ],
      "stateMutability": "view",
      "type": "function",
      "constant": true
    },
    {
      "inputs": [
        {
          "internalType": "string",
          "name": "",
          "type": "string"
        }
      ],
      "name": "weatherToWeatherURI",
      "outputs": [
        {
          "internalType": "string",
          "name": "",
          "type": "string"
        }
      ],
      "stateMutability": "view",
      "type": "function",
      "constant": true
    },
    {
      "inputs": [],
      "name": "mintWeatherNFT",
      "outputs": [],
      "stateMutability": "nonpayable",
      "type": "function"
    },
    {
      "inputs": [
        {
          "internalType": "uint256",
          "name": "_overRide",
          "type": "uint256"
        }
      ],
      "name": "setOverRide",
      "outputs": [],
      "stateMutability": "nonpayable",
      "type": "function"
    },
    {
      "inputs": [
        {
          "internalType": "string",
          "name": "weather",
          "type": "string"
        },
        {
          "internalType": "string",
          "name": "tokenUri",
          "type": "string"
        },
        {
          "internalType": "uint256",
          "name": "tokenId",
          "type": "uint256"
        }
      ],
      "name": "setWeatherURI",
      "outputs": [],
      "stateMutability": "nonpayable",
      "type": "function"
    },
    {
      "inputs": [
        {
          "internalType": "uint256",
          "name": "tokenId",
          "type": "uint256"
        }
      ],
      "name": "tokenURI",
      "outputs": [
        {
          "internalType": "string",
          "name": "",
          "type": "string"
        }
      ],
      "stateMutability": "view",
      "type": "function",
      "constant": true
    },
    {
      "inputs": [
        {
          "internalType": "string",
          "name": "password",
          "type": "string"
        }
      ],
      "name": "attemptPassword",
      "outputs": [
        {
          "internalType": "bytes32",
          "name": "requestId",
          "type": "bytes32"
        }
      ],
      "stateMutability": "nonpayable",
      "type": "function"
    },
    {
      "inputs": [
        {
          "internalType": "bytes32",
          "name": "_requestId",
          "type": "bytes32"
        },
        {
          "internalType": "uint256",
          "name": "_data",
          "type": "uint256"
        }
      ],
      "name": "fulfill",
      "outputs": [],
      "stateMutability": "nonpayable",
      "type": "function"
    },
    {
      "inputs": [
        {
          "internalType": "bytes32",
          "name": "_bytes32",
          "type": "bytes32"
        }
      ],
      "name": "bytes32ToString",
      "outputs": [
        {
          "internalType": "string",
          "name": "",
          "type": "string"
        }
      ],
      "stateMutability": "pure",
      "type": "function",
      "constant": true
    }
  ],
  "bytecode": "0x60806040526001600f553480156200001657600080fd5b5060405162005bf638038062005bf6833981810160405260a08110156200003c57600080fd5b8101908080519060200190929190805190602001909291908051906020019092919080519060200190929190805190602001909291905050506040518060400160405280602081526020017f436f6e73656e73757332303231436861696e6c696e6b576561746865724e46548152506040518060400160405280600481526020017f774e465400000000000000000000000000000000000000000000000000000000815250620000f96301ffc9a760e01b6200080b60201b60201c565b81600690805190602001906200011192919062000a0a565b5080600790805190602001906200012a92919062000a0a565b50620001436380ac58cd60e01b6200080b60201b60201c565b6200015b635b5e139f60e01b6200080b60201b60201c565b6200017363780e9d6360e01b6200080b60201b60201c565b50506000620001876200091460201b60201c565b905080600a60006101000a81548173ffffffffffffffffffffffffffffffffffffffff021916908373ffffffffffffffffffffffffffffffffffffffff1602179055508073ffffffffffffffffffffffffffffffffffffffff16600073ffffffffffffffffffffffffffffffffffffffff167f8be0079c531659141344cd1fd0a4f28419497f9722a3daafe3b4186f6b6457e060405160405180910390a350600073ffffffffffffffffffffffffffffffffffffffff168573ffffffffffffffffffffffffffffffffffffffff16141562000272576200026c6200091c60201b60201c565b62000284565b6200028385620009c660201b60201c565b5b83601460006101000a81548173ffffffffffffffffffffffffffffffffffffffff021916908373ffffffffffffffffffffffffffffffffffffffff16021790555060405180608001604052806043815260200162005b7060439139601a60405180807f5468756e64657273746f726d0000000000000000000000000000000000000000815250600c019050908152602001604051809103902090805190602001906200033292919062000a0a565b5060405180608001604052806043815260200162005b7060439139601a60405180807f4472697a7a6c6500000000000000000000000000000000000000000000000000815250600701905090815260200160405180910390209080519060200190620003a092919062000a0a565b5060405180608001604052806043815260200162005b7060439139601a60405180807f5261696e000000000000000000000000000000000000000000000000000000008152506004019050908152602001604051809103902090805190602001906200040e92919062000a0a565b5060405180608001604052806043815260200162005aea60439139601a60405180807f536e6f77000000000000000000000000000000000000000000000000000000008152506004019050908152602001604051809103902090805190602001906200047c92919062000a0a565b5060405180608001604052806043815260200162005bb360439139601a60405180807f41746d6f73706865726500000000000000000000000000000000000000000000815250600a01905090815260200160405180910390209080519060200190620004ea92919062000a0a565b5060405180608001604052806043815260200162005b2d60439139601a60405180807f436c6561720000000000000000000000000000000000000000000000000000008152506005019050908152602001604051809103902090805190602001906200055892919062000a0a565b5060405180608001604052806043815260200162005bb360439139601a60405180807f436c6f7564730000000000000000000000000000000000000000000000000000815250600601905090815260200160405180910390209080519060200190620005c692919062000a0a565b506001601160006101000a81548160ff021916908315150217905550601a60405180807f5261696e0000000000000000000000000000000000000000000000000000000081525060040190509081526020016040518091039020601b600080815260200190815260200160002090805460018160011615610100020316600290046200065492919062000a91565b50601a60405180807f436c65617200000000000000000000000000000000000000000000000000000081525060050190509081526020016040518091039020601b6000600181526020019081526020016000209080546001816001161561010002031660029004620006c892919062000a91565b50601a60405180807f436c6f756473000000000000000000000000000000000000000000000000000081525060060190509081526020016040518091039020601b60006002815260200190815260200160002090805460018160011615610100020316600290046200073c92919062000a91565b50601a60405180807f536e6f770000000000000000000000000000000000000000000000000000000081525060040190509081526020016040518091039020601b6000600381526020019081526020016000209080546001816001161561010002031660029004620007b092919062000a91565b5082601760006101000a81548173ffffffffffffffffffffffffffffffffffffffff021916908373ffffffffffffffffffffffffffffffffffffffff1602179055508160168190555080601881905550505050505062000b47565b63ffffffff60e01b817bffffffffffffffffffffffffffffffffffffffffffffffffffffffff19161415620008a8576040517f08c379a000000000000000000000000000000000000000000000000000000000815260040180806020018281038252601c8152602001807f4552433136353a20696e76616c696420696e746572666163652069640000000081525060200191505060405180910390fd5b6001600080837bffffffffffffffffffffffffffffffffffffffffffffffffffffffff19167bffffffffffffffffffffffffffffffffffffffffffffffffffffffff1916815260200190815260200160002060006101000a81548160ff02191690831515021790555050565b600033905090565b620009c473c89bd4e1632d3a43cb03aaad5262cbe4038bc57173ffffffffffffffffffffffffffffffffffffffff166338cc48316040518163ffffffff1660e01b815260040160206040518083038186803b1580156200097b57600080fd5b505afa15801562000990573d6000803e3d6000fd5b505050506040513d6020811015620009a757600080fd5b8101908080519060200190929190505050620009c660201b60201c565b565b80600d60006101000a81548173ffffffffffffffffffffffffffffffffffffffff021916908373ffffffffffffffffffffffffffffffffffffffff16021790555050565b828054600181600116156101000203166002900490600052602060002090601f016020900481019282601f1062000a4d57805160ff191683800117855562000a7e565b8280016001018555821562000a7e579182015b8281111562000a7d57825182559160200191906001019062000a60565b5b50905062000a8d919062000b1f565b5090565b828054600181600116156101000203166002900490600052602060002090601f016020900481019282601f1062000acc578054855562000b0c565b8280016001018555821562000b0c57600052602060002091601f016020900482015b8281111562000b0b57825482559160010191906001019062000aee565b5b50905062000b1b919062000b1f565b5090565b62000b4491905b8082111562000b4057600081600090555060010162000b26565b5090565b90565b614f938062000b576000396000f3fe608060405234801561001057600080fd5b50600436106102325760003560e01c806371beb55011610130578063a22cb465116100b8578063d082e3811161007c578063d082e38114611095578063ddca3f43146110b3578063e985e9c5146110d1578063f2fde38b1461114d578063f5addf9d1461119157610232565b8063a22cb46514610e71578063b88d4fde14610ec1578063c2939d9714610fc6578063c315ceb514610fe4578063c87b56dd14610fee57610232565b806386db8f98116100ff57806386db8f9814610b1e5780638da5cb5b14610c7a5780639201de5514610cc45780639286859114610d6b57806395d89b4114610dee57610232565b806371beb55014610a1a5780637a7f01a714610a485780637c76f04514610a665780637dc0d1d014610ad457610232565b80634c816636116101be5780636c0360eb116101825780636c0360eb146107bf5780636d1a010114610842578063703d8d4f1461091157806370a08231146109b8578063715018a614610a1057610232565b80634c8166361461056f5780634dedd70f146106a35780634f6ccce7146106c55780635724241c146107075780636352211e1461075157610232565b806318160ddd1161020557806318160ddd146103db57806323b872dd146103f95780632f745c591461046757806342842e0e146104c95780634357855e1461053757610232565b806301ffc9a71461023757806306fdde031461029c578063081812fc1461031f578063095ea7b31461038d575b600080fd5b6102826004803603602081101561024d57600080fd5b8101908080357bffffffffffffffffffffffffffffffffffffffffffffffffffffffff191690602001909291905050506111d7565b604051808215151515815260200191505060405180910390f35b6102a461123e565b6040518080602001828103825283818151815260200191508051906020019080838360005b838110156102e45780820151818401526020810190506102c9565b50505050905090810190601f1680156103115780820380516001836020036101000a031916815260200191505b509250505060405180910390f35b61034b6004803603602081101561033557600080fd5b81019080803590602001909291905050506112e0565b604051808273ffffffffffffffffffffffffffffffffffffffff1673ffffffffffffffffffffffffffffffffffffffff16815260200191505060405180910390f35b6103d9600480360360408110156103a357600080fd5b81019080803573ffffffffffffffffffffffffffffffffffffffff1690602001909291908035906020019092919050505061137b565b005b6103e36114bf565b6040518082815260200191505060405180910390f35b6104656004803603606081101561040f57600080fd5b81019080803573ffffffffffffffffffffffffffffffffffffffff169060200190929190803573ffffffffffffffffffffffffffffffffffffffff169060200190929190803590602001909291905050506114d0565b005b6104b36004803603604081101561047d57600080fd5b81019080803573ffffffffffffffffffffffffffffffffffffffff16906020019092919080359060200190929190505050611546565b6040518082815260200191505060405180910390f35b610535600480360360608110156104df57600080fd5b81019080803573ffffffffffffffffffffffffffffffffffffffff169060200190929190803573ffffffffffffffffffffffffffffffffffffffff169060200190929190803590602001909291905050506115a1565b005b61056d6004803603604081101561054d57600080fd5b8101908080359060200190929190803590602001909291905050506115c1565b005b6106286004803603602081101561058557600080fd5b81019080803590602001906401000000008111156105a257600080fd5b8201836020820111156105b457600080fd5b803590602001918460018302840111640100000000831117156105d657600080fd5b91908080601f016020809104026020016040519081016040528093929190818152602001838380828437600081840152601f19601f820116905080830192505050505050509192919290505050611b56565b6040518080602001828103825283818151815260200191508051906020019080838360005b8381101561066857808201518184015260208101905061064d565b50505050905090810190601f1680156106955780820380516001836020036101000a031916815260200191505b509250505060405180910390f35b6106ab611c1c565b604051808215151515815260200191505060405180910390f35b6106f1600480360360208110156106db57600080fd5b8101908080359060200190929190505050611c2f565b6040518082815260200191505060405180910390f35b61070f611c52565b604051808273ffffffffffffffffffffffffffffffffffffffff1673ffffffffffffffffffffffffffffffffffffffff16815260200191505060405180910390f35b61077d6004803603602081101561076757600080fd5b8101908080359060200190929190505050611c78565b604051808273ffffffffffffffffffffffffffffffffffffffff1673ffffffffffffffffffffffffffffffffffffffff16815260200191505060405180910390f35b6107c7611caf565b6040518080602001828103825283818151815260200191508051906020019080838360005b838110156108075780820151818401526020810190506107ec565b50505050905090810190601f1680156108345780820380516001836020036101000a031916815260200191505b509250505060405180910390f35b6108fb6004803603602081101561085857600080fd5b810190808035906020019064010000000081111561087557600080fd5b82018360208201111561088757600080fd5b803590602001918460018302840111640100000000831117156108a957600080fd5b91908080601f016020809104026020016040519081016040528093929190818152602001838380828437600081840152601f19601f820116905080830192505050505050509192919290505050611d51565b6040518082815260200191505060405180910390f35b61093d6004803603602081101561092757600080fd5b8101908080359060200190929190505050611e7b565b6040518080602001828103825283818151815260200191508051906020019080838360005b8381101561097d578082015181840152602081019050610962565b50505050905090810190601f1680156109aa5780820380516001836020036101000a031916815260200191505b509250505060405180910390f35b6109fa600480360360208110156109ce57600080fd5b81019080803573ffffffffffffffffffffffffffffffffffffffff169060200190929190505050611f2b565b6040518082815260200191505060405180910390f35b610a18612000565b005b610a4660048036036020811015610a3057600080fd5b8101908080359060200190929190505050612170565b005b610a5061226c565b6040518082815260200191505060405180910390f35b610a9260048036036020811015610a7c57600080fd5b8101908080359060200190929190505050612272565b604051808273ffffffffffffffffffffffffffffffffffffffff1673ffffffffffffffffffffffffffffffffffffffff16815260200191505060405180910390f35b610adc6122a5565b604051808273ffffffffffffffffffffffffffffffffffffffff1673ffffffffffffffffffffffffffffffffffffffff16815260200191505060405180910390f35b610c7860048036036060811015610b3457600080fd5b8101908080359060200190640100000000811115610b5157600080fd5b820183602082011115610b6357600080fd5b80359060200191846001830284011164010000000083111715610b8557600080fd5b91908080601f016020809104026020016040519081016040528093929190818152602001838380828437600081840152601f19601f82011690508083019250505050505050919291929080359060200190640100000000811115610be857600080fd5b820183602082011115610bfa57600080fd5b80359060200191846001830284011164010000000083111715610c1c57600080fd5b91908080601f016020809104026020016040519081016040528093929190818152602001838380828437600081840152601f19601f820116905080830192505050505050509192919290803590602001909291905050506122cb565b005b610c82612425565b604051808273ffffffffffffffffffffffffffffffffffffffff1673ffffffffffffffffffffffffffffffffffffffff16815260200191505060405180910390f35b610cf060048036036020811015610cda57600080fd5b810190808035906020019092919050505061244f565b6040518080602001828103825283818151815260200191508051906020019080838360005b83811015610d30578082015181840152602081019050610d15565b50505050905090810190601f168015610d5d5780820380516001836020036101000a031916815260200191505b509250505060405180910390f35b610d736125c3565b6040518080602001828103825283818151815260200191508051906020019080838360005b83811015610db3578082015181840152602081019050610d98565b50505050905090810190601f168015610de05780820380516001836020036101000a031916815260200191505b509250505060405180910390f35b610df6612661565b6040518080602001828103825283818151815260200191508051906020019080838360005b83811015610e36578082015181840152602081019050610e1b565b50505050905090810190601f168015610e635780820380516001836020036101000a031916815260200191505b509250505060405180910390f35b610ebf60048036036040811015610e8757600080fd5b81019080803573ffffffffffffffffffffffffffffffffffffffff169060200190929190803515159060200190929190505050612703565b005b610fc460048036036080811015610ed757600080fd5b81019080803573ffffffffffffffffffffffffffffffffffffffff169060200190929190803573ffffffffffffffffffffffffffffffffffffffff1690602001909291908035906020019092919080359060200190640100000000811115610f3e57600080fd5b820183602082011115610f5057600080fd5b80359060200191846001830284011164010000000083111715610f7257600080fd5b91908080601f016020809104026020016040519081016040528093929190818152602001838380828437600081840152601f19601f8201169050808301925050505050505091929192905050506128bb565b005b610fce612933565b6040518082815260200191505060405180910390f35b610fec612939565b005b61101a6004803603602081101561100457600080fd5b8101908080359060200190929190505050612a02565b6040518080602001828103825283818151815260200191508051906020019080838360005b8381101561105a57808201518184015260208101905061103f565b50505050905090810190601f1680156110875780820380516001836020036101000a031916815260200191505b509250505060405180910390f35b61109d612da5565b6040518082815260200191505060405180910390f35b6110bb612dab565b6040518082815260200191505060405180910390f35b611133600480360360408110156110e757600080fd5b81019080803573ffffffffffffffffffffffffffffffffffffffff169060200190929190803573ffffffffffffffffffffffffffffffffffffffff169060200190929190505050612db1565b604051808215151515815260200191505060405180910390f35b61118f6004803603602081101561116357600080fd5b81019080803573ffffffffffffffffffffffffffffffffffffffff169060200190929190505050612e45565b005b6111bd600480360360208110156111a757600080fd5b810190808035906020019092919050505061303a565b604051808215151515815260200191505060405180910390f35b6000806000837bffffffffffffffffffffffffffffffffffffffffffffffffffffffff19167bffffffffffffffffffffffffffffffffffffffffffffffffffffffff1916815260200190815260200160002060009054906101000a900460ff169050919050565b606060068054600181600116156101000203166002900480601f0160208091040260200160405190810160405280929190818152602001828054600181600116156101000203166002900480156112d65780601f106112ab576101008083540402835291602001916112d6565b820191906000526020600020905b8154815290600101906020018083116112b957829003601f168201915b5050505050905090565b60006112eb8261305a565b611340576040517f08c379a000000000000000000000000000000000000000000000000000000000815260040180806020018281038252602c815260200180614e60602c913960400191505060405180910390fd5b6004600083815260200190815260200160002060009054906101000a900473ffffffffffffffffffffffffffffffffffffffff169050919050565b600061138682611c78565b90508073ffffffffffffffffffffffffffffffffffffffff168373ffffffffffffffffffffffffffffffffffffffff16141561140d576040517f08c379a0000000000000000000000000000000000000000000000000000000008152600401808060200182810382526021815260200180614ee46021913960400191505060405180910390fd5b8073ffffffffffffffffffffffffffffffffffffffff1661142c613077565b73ffffffffffffffffffffffffffffffffffffffff16148061145b575061145a81611455613077565b612db1565b5b6114b0576040517f08c379a0000000000000000000000000000000000000000000000000000000008152600401808060200182810382526038815260200180614db36038913960400191505060405180910390fd5b6114ba838361307f565b505050565b60006114cb6002613138565b905090565b6114e16114db613077565b8261314d565b611536576040517f08c379a0000000000000000000000000000000000000000000000000000000008152600401808060200182810382526031815260200180614f056031913960400191505060405180910390fd5b611541838383613241565b505050565b600061159982600160008673ffffffffffffffffffffffffffffffffffffffff1673ffffffffffffffffffffffffffffffffffffffff16815260200190815260200160002061348490919063ffffffff16565b905092915050565b6115bc838383604051806020016040528060008152506128bb565b505050565b816010600082815260200190815260200160002060009054906101000a900473ffffffffffffffffffffffffffffffffffffffff1673ffffffffffffffffffffffffffffffffffffffff163373ffffffffffffffffffffffffffffffffffffffff1614611679576040517f08c379a0000000000000000000000000000000000000000000000000000000008152600401808060200182810382526028815260200180614f366028913960400191505060405180910390fd5b6010600082815260200190815260200160002060006101000a81549073ffffffffffffffffffffffffffffffffffffffff0219169055807f7cc135e0cebb02c3480ae5d74d377283180a2601f8f644edf7987b009316c63a60405160405180910390a281601581905550600060155414156117fd5760001515601c600080815260200190815260200160002060009054906101000a900460ff16151514611788576040517f08c379a00000000000000000000000000000000000000000000000000000000081526004018080602001828103825260148152602001807f5468697320746f6b656e2069732074616b656e2100000000000000000000000081525060200191505060405180910390fd5b6117d06117956000611c78565b6019600086815260200190815260200160002060009054906101000a900473ffffffffffffffffffffffffffffffffffffffff1660006115a1565b6001601c600080815260200190815260200160002060006101000a81548160ff0219169083151502179055505b600160155414156119195760001515601c60006001815260200190815260200160002060009054906101000a900460ff161515146118a3576040517f08c379a00000000000000000000000000000000000000000000000000000000081526004018080602001828103825260148152602001807f5468697320746f6b656e2069732074616b656e2100000000000000000000000081525060200191505060405180910390fd5b6118eb6118b06001611c78565b6019600086815260200190815260200160002060009054906101000a900473ffffffffffffffffffffffffffffffffffffffff1660016115a1565b6001601c60006001815260200190815260200160002060006101000a81548160ff0219169083151502179055505b60026015541415611a355760001515601c60006002815260200190815260200160002060009054906101000a900460ff161515146119bf576040517f08c379a00000000000000000000000000000000000000000000000000000000081526004018080602001828103825260148152602001807f5468697320746f6b656e2069732074616b656e2100000000000000000000000081525060200191505060405180910390fd5b611a076119cc6002611c78565b6019600086815260200190815260200160002060009054906101000a900473ffffffffffffffffffffffffffffffffffffffff1660026115a1565b6001601c60006002815260200190815260200160002060006101000a81548160ff0219169083151502179055505b60036015541415611b515760001515601c60006003815260200190815260200160002060009054906101000a900460ff16151514611adb576040517f08c379a00000000000000000000000000000000000000000000000000000000081526004018080602001828103825260148152602001807f5468697320746f6b656e2069732074616b656e2100000000000000000000000081525060200191505060405180910390fd5b611b23611ae86003611c78565b6019600086815260200190815260200160002060009054906101000a900473ffffffffffffffffffffffffffffffffffffffff1660036115a1565b6001601c60006003815260200190815260200160002060006101000a81548160ff0219169083151502179055505b505050565b601a818051602081018201805184825260208301602085012081835280955050505050506000915090508054600181600116156101000203166002900480601f016020809104026020016040519081016040528092919081815260200182805460018160011615610100020316600290048015611c145780601f10611be957610100808354040283529160200191611c14565b820191906000526020600020905b815481529060010190602001808311611bf757829003601f168201915b505050505081565b601160009054906101000a900460ff1681565b600080611c4683600261349e90919063ffffffff16565b50905080915050919050565b601460009054906101000a900473ffffffffffffffffffffffffffffffffffffffff1681565b6000611ca882604051806060016040528060298152602001614e156029913960026134cd9092919063ffffffff16565b9050919050565b606060098054600181600116156101000203166002900480601f016020809104026020016040519081016040528092919081815260200182805460018160011615610100020316600290048015611d475780601f10611d1c57610100808354040283529160200191611d47565b820191906000526020600020905b815481529060010190602001808311611d2a57829003601f168201915b5050505050905090565b6000611d5b614b73565b611d6f60165430634357855e60e01b6134ec565b9050611dbb6040518060400160405280600881526020017f70617373776f7264000000000000000000000000000000000000000000000000815250848361351d9092919063ffffffff16565b611dea601760009054906101000a900473ffffffffffffffffffffffffffffffffffffffff1682601854613550565b9150336019600084815260200190815260200160002060006101000a81548173ffffffffffffffffffffffffffffffffffffffff021916908373ffffffffffffffffffffffffffffffffffffffff1602179055507f1775a2d4bfea7545363bf30417f5bcf257307114c7044d8330849a6c91f43ab2826040518082815260200191505060405180910390a150919050565b601b6020528060005260406000206000915090508054600181600116156101000203166002900480601f016020809104026020016040519081016040528092919081815260200182805460018160011615610100020316600290048015611f235780601f10611ef857610100808354040283529160200191611f23565b820191906000526020600020905b815481529060010190602001808311611f0657829003601f168201915b505050505081565b60008073ffffffffffffffffffffffffffffffffffffffff168273ffffffffffffffffffffffffffffffffffffffff161415611fb2576040517f08c379a000000000000000000000000000000000000000000000000000000000815260040180806020018281038252602a815260200180614deb602a913960400191505060405180910390fd5b611ff9600160008473ffffffffffffffffffffffffffffffffffffffff1673ffffffffffffffffffffffffffffffffffffffff168152602001908152602001600020613808565b9050919050565b612008613077565b73ffffffffffffffffffffffffffffffffffffffff16612026612425565b73ffffffffffffffffffffffffffffffffffffffff16146120af576040517f08c379a00000000000000000000000000000000000000000000000000000000081526004018080602001828103825260208152602001807f4f776e61626c653a2063616c6c6572206973206e6f7420746865206f776e657281525060200191505060405180910390fd5b600073ffffffffffffffffffffffffffffffffffffffff16600a60009054906101000a900473ffffffffffffffffffffffffffffffffffffffff1673ffffffffffffffffffffffffffffffffffffffff167f8be0079c531659141344cd1fd0a4f28419497f9722a3daafe3b4186f6b6457e060405160405180910390a36000600a60006101000a81548173ffffffffffffffffffffffffffffffffffffffff021916908373ffffffffffffffffffffffffffffffffffffffff160217905550565b612178613077565b73ffffffffffffffffffffffffffffffffffffffff16612196612425565b73ffffffffffffffffffffffffffffffffffffffff161461221f576040517f08c379a00000000000000000000000000000000000000000000000000000000081526004018080602001828103825260208152602001807f4f776e61626c653a2063616c6c6572206973206e6f7420746865206f776e657281525060200191505060405180910390fd5b6000811415612244576000601160006101000a81548160ff0219169083151502179055505b6001811415612269576001601160006101000a81548160ff0219169083151502179055505b50565b60155481565b60196020528060005260406000206000915054906101000a900473ffffffffffffffffffffffffffffffffffffffff1681565b601760009054906101000a900473ffffffffffffffffffffffffffffffffffffffff1681565b6122d3613077565b73ffffffffffffffffffffffffffffffffffffffff166122f1612425565b73ffffffffffffffffffffffffffffffffffffffff161461237a576040517f08c379a00000000000000000000000000000000000000000000000000000000081526004018080602001828103825260208152602001807f4f776e61626c653a2063616c6c6572206973206e6f7420746865206f776e657281525060200191505060405180910390fd5b81601a846040518082805190602001908083835b602083106123b1578051825260208201915060208101905060208303925061238e565b6001836020036101000a038019825116818451168082178552505050505050905001915050908152602001604051809103902090805190602001906123f7929190614be0565b5081601b6000838152602001908152602001600020908051906020019061241f929190614be0565b50505050565b6000600a60009054906101000a900473ffffffffffffffffffffffffffffffffffffffff16905090565b606060008090505b60208160ff161080156124a25750600060f81b838260ff166020811061247957fe5b1a60f81b7effffffffffffffffffffffffffffffffffffffffffffffffffffffffffffff191614155b156124b4578080600101915050612457565b60608160ff1667ffffffffffffffff811180156124d057600080fd5b506040519080825280601f01601f1916602001820160405280156125035781602001600182028036833780820191505090505b509050600091505b60208260ff161080156125565750600060f81b848360ff166020811061252d57fe5b1a60f81b7effffffffffffffffffffffffffffffffffffffffffffffffffffffffffffff191614155b156125b957838260ff166020811061256a57fe5b1a60f81b818360ff168151811061257d57fe5b60200101907effffffffffffffffffffffffffffffffffffffffffffffffffffffffffffff1916908160001a905350818060010192505061250b565b8092505050919050565b60128054600181600116156101000203166002900480601f0160208091040260200160405190810160405280929190818152602001828054600181600116156101000203166002900480156126595780601f1061262e57610100808354040283529160200191612659565b820191906000526020600020905b81548152906001019060200180831161263c57829003601f168201915b505050505081565b606060078054600181600116156101000203166002900480601f0160208091040260200160405190810160405280929190818152602001828054600181600116156101000203166002900480156126f95780601f106126ce576101008083540402835291602001916126f9565b820191906000526020600020905b8154815290600101906020018083116126dc57829003601f168201915b5050505050905090565b61270b613077565b73ffffffffffffffffffffffffffffffffffffffff168273ffffffffffffffffffffffffffffffffffffffff1614156127ac576040517f08c379a00000000000000000000000000000000000000000000000000000000081526004018080602001828103825260198152602001807f4552433732313a20617070726f766520746f2063616c6c65720000000000000081525060200191505060405180910390fd5b80600560006127b9613077565b73ffffffffffffffffffffffffffffffffffffffff1673ffffffffffffffffffffffffffffffffffffffff16815260200190815260200160002060008473ffffffffffffffffffffffffffffffffffffffff1673ffffffffffffffffffffffffffffffffffffffff16815260200190815260200160002060006101000a81548160ff0219169083151502179055508173ffffffffffffffffffffffffffffffffffffffff16612866613077565b73ffffffffffffffffffffffffffffffffffffffff167f17307eab39ab6107e8899845ad3d59bd9653f200f220920489ca2b5937696c3183604051808215151515815260200191505060405180910390a35050565b6128cc6128c6613077565b8361314d565b612921576040517f08c379a0000000000000000000000000000000000000000000000000000000008152600401808060200182810382526031815260200180614f056031913960400191505060405180910390fd5b61292d8484848461381d565b50505050565b60165481565b612941613077565b73ffffffffffffffffffffffffffffffffffffffff1661295f612425565b73ffffffffffffffffffffffffffffffffffffffff16146129e8576040517f08c379a00000000000000000000000000000000000000000000000000000000081526004018080602001828103825260208152602001807f4f776e61626c653a2063616c6c6572206973206e6f7420746865206f776e657281525060200191505060405180910390fd5b6129f43360135461388f565b600160135401601381905550565b6060612a0d8261305a565b612a62576040517f08c379a000000000000000000000000000000000000000000000000000000000815260040180806020018281038252602f815260200180614eb5602f913960400191505060405180910390fd5b60011515601160009054906101000a900460ff1615151415612b3b57601b600060048481612a8c57fe5b0681526020019081526020016000208054600181600116156101000203166002900480601f016020809104026020016040519081016040528092919081815260200182805460018160011615610100020316600290048015612b2f5780601f10612b0457610100808354040283529160200191612b2f565b820191906000526020600020905b815481529060010190602001808311612b1257829003601f168201915b50505050509050612da0565b601a601460009054906101000a900473ffffffffffffffffffffffffffffffffffffffff1673ffffffffffffffffffffffffffffffffffffffff1663686b61596040518163ffffffff1660e01b815260040160006040518083038186803b158015612ba557600080fd5b505afa158015612bb9573d6000803e3d6000fd5b505050506040513d6000823e3d601f19601f820116820180604052506020811015612be357600080fd5b8101908080516040519392919084640100000000821115612c0357600080fd5b83820191506020820185811115612c1957600080fd5b8251866001820283011164010000000082111715612c3657600080fd5b8083526020830192505050908051906020019080838360005b83811015612c6a578082015181840152602081019050612c4f565b50505050905090810190601f168015612c975780820380516001836020036101000a031916815260200191505b506040525050506040518082805190602001908083835b60208310612cd15780518252602082019150602081019050602083039250612cae565b6001836020036101000a03801982511681845116808217855250505050505090500191505090815260200160405180910390208054600181600116156101000203166002900480601f016020809104026020016040519081016040528092919081815260200182805460018160011615610100020316600290048015612d985780601f10612d6d57610100808354040283529160200191612d98565b820191906000526020600020905b815481529060010190602001808311612d7b57829003601f168201915b505050505090505b919050565b60135481565b60185481565b6000600560008473ffffffffffffffffffffffffffffffffffffffff1673ffffffffffffffffffffffffffffffffffffffff16815260200190815260200160002060008373ffffffffffffffffffffffffffffffffffffffff1673ffffffffffffffffffffffffffffffffffffffff16815260200190815260200160002060009054906101000a900460ff16905092915050565b612e4d613077565b73ffffffffffffffffffffffffffffffffffffffff16612e6b612425565b73ffffffffffffffffffffffffffffffffffffffff1614612ef4576040517f08c379a00000000000000000000000000000000000000000000000000000000081526004018080602001828103825260208152602001807f4f776e61626c653a2063616c6c6572206973206e6f7420746865206f776e657281525060200191505060405180910390fd5b600073ffffffffffffffffffffffffffffffffffffffff168173ffffffffffffffffffffffffffffffffffffffff161415612f7a576040517f08c379a0000000000000000000000000000000000000000000000000000000008152600401808060200182810382526026815260200180614cf46026913960400191505060405180910390fd5b8073ffffffffffffffffffffffffffffffffffffffff16600a60009054906101000a900473ffffffffffffffffffffffffffffffffffffffff1673ffffffffffffffffffffffffffffffffffffffff167f8be0079c531659141344cd1fd0a4f28419497f9722a3daafe3b4186f6b6457e060405160405180910390a380600a60006101000a81548173ffffffffffffffffffffffffffffffffffffffff021916908373ffffffffffffffffffffffffffffffffffffffff16021790555050565b601c6020528060005260406000206000915054906101000a900460ff1681565b60006130708260026138ad90919063ffffffff16565b9050919050565b600033905090565b816004600083815260200190815260200160002060006101000a81548173ffffffffffffffffffffffffffffffffffffffff021916908373ffffffffffffffffffffffffffffffffffffffff160217905550808273ffffffffffffffffffffffffffffffffffffffff166130f283611c78565b73ffffffffffffffffffffffffffffffffffffffff167f8c5be1e5ebec7d5bd14f71427d1e84f3dd0314c0f7b2291e5b200ac8c7c3b92560405160405180910390a45050565b6000613146826000016138c7565b9050919050565b60006131588261305a565b6131ad576040517f08c379a000000000000000000000000000000000000000000000000000000000815260040180806020018281038252602c815260200180614d87602c913960400191505060405180910390fd5b60006131b883611c78565b90508073ffffffffffffffffffffffffffffffffffffffff168473ffffffffffffffffffffffffffffffffffffffff16148061322757508373ffffffffffffffffffffffffffffffffffffffff1661320f846112e0565b73ffffffffffffffffffffffffffffffffffffffff16145b8061323857506132378185612db1565b5b91505092915050565b8273ffffffffffffffffffffffffffffffffffffffff1661326182611c78565b73ffffffffffffffffffffffffffffffffffffffff16146132cd576040517f08c379a0000000000000000000000000000000000000000000000000000000008152600401808060200182810382526029815260200180614e8c6029913960400191505060405180910390fd5b600073ffffffffffffffffffffffffffffffffffffffff168273ffffffffffffffffffffffffffffffffffffffff161415613353576040517f08c379a0000000000000000000000000000000000000000000000000000000008152600401808060200182810382526024815260200180614d3d6024913960400191505060405180910390fd5b61335e8383836138d8565b61336960008261307f565b6133ba81600160008673ffffffffffffffffffffffffffffffffffffffff1673ffffffffffffffffffffffffffffffffffffffff1681526020019081526020016000206138dd90919063ffffffff16565b5061340c81600160008573ffffffffffffffffffffffffffffffffffffffff1673ffffffffffffffffffffffffffffffffffffffff1681526020019081526020016000206138f790919063ffffffff16565b50613423818360026139119092919063ffffffff16565b50808273ffffffffffffffffffffffffffffffffffffffff168473ffffffffffffffffffffffffffffffffffffffff167fddf252ad1be2c89b69c2b068fc378daa952ba7f163c4a11628f55a4df523b3ef60405160405180910390a4505050565b60006134938360000183613946565b60001c905092915050565b6000806000806134b186600001866139c9565b915091508160001c8160001c8090509350935050509250929050565b60006134e0846000018460001b84613a62565b60001c90509392505050565b6134f4614b73565b6134fc614b73565b61351385858584613b58909392919063ffffffff16565b9150509392505050565b613534828460800151613c0890919063ffffffff16565b61354b818460800151613c0890919063ffffffff16565b505050565b600030600f54604051602001808373ffffffffffffffffffffffffffffffffffffffff1673ffffffffffffffffffffffffffffffffffffffff1660601b815260140182815260200192505050604051602081830303815290604052805190602001209050600f54836060018181525050836010600083815260200190815260200160002060006101000a81548173ffffffffffffffffffffffffffffffffffffffff021916908373ffffffffffffffffffffffffffffffffffffffff160217905550807fb5e6e01e79f91267dc17b4e6314d5d4d03593d2ceee0fbb452b750bd70ea5af960405160405180910390a2600d60009054906101000a900473ffffffffffffffffffffffffffffffffffffffff1673ffffffffffffffffffffffffffffffffffffffff16634000aea0858461368887613c2d565b6040518463ffffffff1660e01b8152600401808473ffffffffffffffffffffffffffffffffffffffff1673ffffffffffffffffffffffffffffffffffffffff16815260200183815260200180602001828103825283818151815260200191508051906020019080838360005b8381101561370f5780820151818401526020810190506136f4565b50505050905090810190601f16801561373c5780820380516001836020036101000a031916815260200191505b50945050505050602060405180830381600087803b15801561375d57600080fd5b505af1158015613771573d6000803e3d6000fd5b505050506040513d602081101561378757600080fd5b81019080805190602001909291905050506137ed576040517f08c379a0000000000000000000000000000000000000000000000000000000008152600401808060200182810382526023815260200180614d1a6023913960400191505060405180910390fd5b6001600f600082825401925050819055508090509392505050565b600061381682600001613df9565b9050919050565b613828848484613241565b61383484848484613e0a565b613889576040517f08c379a0000000000000000000000000000000000000000000000000000000008152600401808060200182810382526032815260200180614cc26032913960400191505060405180910390fd5b50505050565b6138a982826040518060200160405280600081525061404f565b5050565b60006138bf836000018360001b6140c0565b905092915050565b600081600001805490509050919050565b505050565b60006138ef836000018360001b6140e3565b905092915050565b6000613909836000018360001b6141cb565b905092915050565b600061393d846000018460001b8473ffffffffffffffffffffffffffffffffffffffff1660001b61423b565b90509392505050565b6000818360000180549050116139a7576040517f08c379a0000000000000000000000000000000000000000000000000000000008152600401808060200182810382526022815260200180614ca06022913960400191505060405180910390fd5b8260000182815481106139b657fe5b9060005260206000200154905092915050565b60008082846000018054905011613a2b576040517f08c379a0000000000000000000000000000000000000000000000000000000008152600401808060200182810382526022815260200180614e3e6022913960400191505060405180910390fd5b6000846000018481548110613a3c57fe5b906000526020600020906002020190508060000154816001015492509250509250929050565b60008084600101600085815260200190815260200160002054905060008114158390613b29576040517f08c379a00000000000000000000000000000000000000000000000000000000081526004018080602001828103825283818151815260200191508051906020019080838360005b83811015613aee578082015181840152602081019050613ad3565b50505050905090810190601f168015613b1b5780820380516001836020036101000a031916815260200191505b509250505060405180910390fd5b50846000016001820381548110613b3c57fe5b9060005260206000209060020201600101549150509392505050565b613b60614b73565b613b708560800151610100614317565b508385600001818152505082856020019073ffffffffffffffffffffffffffffffffffffffff16908173ffffffffffffffffffffffffffffffffffffffff16815250508185604001907bffffffffffffffffffffffffffffffffffffffffffffffffffffffff191690817bffffffffffffffffffffffffffffffffffffffffffffffffffffffff191681525050849050949350505050565b613c15826003835161436b565b613c2881836144b090919063ffffffff16565b505050565b6060634042994660e01b60008084600001518560200151866040015187606001516001896080015160000151604051602401808973ffffffffffffffffffffffffffffffffffffffff1673ffffffffffffffffffffffffffffffffffffffff1681526020018881526020018781526020018673ffffffffffffffffffffffffffffffffffffffff1673ffffffffffffffffffffffffffffffffffffffff168152602001857bffffffffffffffffffffffffffffffffffffffffffffffffffffffff19167bffffffffffffffffffffffffffffffffffffffffffffffffffffffff1916815260200184815260200183815260200180602001828103825283818151815260200191508051906020019080838360005b83811015613d5c578082015181840152602081019050613d41565b50505050905090810190601f168015613d895780820380516001836020036101000a031916815260200191505b509950505050505050505050604051602081830303815290604052907bffffffffffffffffffffffffffffffffffffffffffffffffffffffff19166020820180517bffffffffffffffffffffffffffffffffffffffffffffffffffffffff83818316178352505050509050919050565b600081600001805490509050919050565b6000613e2b8473ffffffffffffffffffffffffffffffffffffffff166144d2565b613e385760019050614047565b6060613fce63150b7a0260e01b613e4d613077565b888787604051602401808573ffffffffffffffffffffffffffffffffffffffff1673ffffffffffffffffffffffffffffffffffffffff1681526020018473ffffffffffffffffffffffffffffffffffffffff1673ffffffffffffffffffffffffffffffffffffffff16815260200183815260200180602001828103825283818151815260200191508051906020019080838360005b83811015613efd578082015181840152602081019050613ee2565b50505050905090810190601f168015613f2a5780820380516001836020036101000a031916815260200191505b5095505050505050604051602081830303815290604052907bffffffffffffffffffffffffffffffffffffffffffffffffffffffff19166020820180517bffffffffffffffffffffffffffffffffffffffffffffffffffffffff8381831617835250505050604051806060016040528060328152602001614cc2603291398773ffffffffffffffffffffffffffffffffffffffff166144e59092919063ffffffff16565b90506000818060200190516020811015613fe757600080fd5b8101908080519060200190929190505050905063150b7a0260e01b7bffffffffffffffffffffffffffffffffffffffffffffffffffffffff1916817bffffffffffffffffffffffffffffffffffffffffffffffffffffffff191614925050505b949350505050565b61405983836144fd565b6140666000848484613e0a565b6140bb576040517f08c379a0000000000000000000000000000000000000000000000000000000008152600401808060200182810382526032815260200180614cc26032913960400191505060405180910390fd5b505050565b600080836001016000848152602001908152602001600020541415905092915050565b600080836001016000848152602001908152602001600020549050600081146141bf576000600182039050600060018660000180549050039050600086600001828154811061412e57fe5b906000526020600020015490508087600001848154811061414b57fe5b906000526020600020018190555060018301876001016000838152602001908152602001600020819055508660000180548061418357fe5b600190038181906000526020600020016000905590558660010160008781526020019081526020016000206000905560019450505050506141c5565b60009150505b92915050565b60006141d783836146f1565b614230578260000182908060018154018082558091505060019003906000526020600020016000909190919091505582600001805490508360010160008481526020019081526020016000208190555060019050614235565b600090505b92915050565b60008084600101600085815260200190815260200160002054905060008114156142e257846000016040518060400160405280868152602001858152509080600181540180825580915050600190039060005260206000209060020201600090919091909150600082015181600001556020820151816001015550508460000180549050856001016000868152602001908152602001600020819055506001915050614310565b828560000160018303815481106142f557fe5b90600052602060002090600202016001018190555060009150505b9392505050565b61431f614c60565b60006020838161432b57fe5b0614614344576020828161433b57fe5b06602003820191505b81836020018181525050604051808452600081528281016020016040525082905092915050565b60178111614398576143928160058460ff16901b60ff16178461471490919063ffffffff16565b506144ab565b60ff81116143da576143bd601860058460ff16901b178461471490919063ffffffff16565b506143d4816001856147349092919063ffffffff16565b506144aa565b61ffff811161441d57614400601960058460ff16901b178461471490919063ffffffff16565b50614417816002856147349092919063ffffffff16565b506144a9565b63ffffffff811161446257614445601a60058460ff16901b178461471490919063ffffffff16565b5061445c816004856147349092919063ffffffff16565b506144a8565b67ffffffffffffffff81116144a75761448e601b60058460ff16901b178461471490919063ffffffff16565b506144a5816008856147349092919063ffffffff16565b505b5b5b5b5b505050565b6144b8614c60565b6144ca83846000015151848551614756565b905092915050565b600080823b905060008111915050919050565b60606144f4848460008561480f565b90509392505050565b600073ffffffffffffffffffffffffffffffffffffffff168273ffffffffffffffffffffffffffffffffffffffff1614156145a0576040517f08c379a00000000000000000000000000000000000000000000000000000000081526004018080602001828103825260208152602001807f4552433732313a206d696e7420746f20746865207a65726f206164647265737381525060200191505060405180910390fd5b6145a98161305a565b1561461c576040517f08c379a000000000000000000000000000000000000000000000000000000000815260040180806020018281038252601c8152602001807f4552433732313a20746f6b656e20616c7265616479206d696e7465640000000081525060200191505060405180910390fd5b614628600083836138d8565b61467981600160008573ffffffffffffffffffffffffffffffffffffffff1673ffffffffffffffffffffffffffffffffffffffff1681526020019081526020016000206138f790919063ffffffff16565b50614690818360026139119092919063ffffffff16565b50808273ffffffffffffffffffffffffffffffffffffffff16600073ffffffffffffffffffffffffffffffffffffffff167fddf252ad1be2c89b69c2b068fc378daa952ba7f163c4a11628f55a4df523b3ef60405160405180910390a45050565b600080836001016000848152602001908152602001600020541415905092915050565b61471c614c60565b61472c83846000015151846149b8565b905092915050565b61473c614c60565b61474d848560000151518585614a06565b90509392505050565b61475e614c60565b825182111561476c57600080fd5b84602001518285011115614797576147968560026147908860200151888701614a67565b02614a83565b5b6000808651805187602083010193508088870111156147b65787860182525b60208701925050505b602084106147e257805182526020820191506020810190506020840393506147bf565b60006001856020036101000a03905080198251168184511681811785525050879350505050949350505050565b60608247101561486a576040517f08c379a0000000000000000000000000000000000000000000000000000000008152600401808060200182810382526026815260200180614d616026913960400191505060405180910390fd5b614873856144d2565b6148e5576040517f08c379a000000000000000000000000000000000000000000000000000000000815260040180806020018281038252601d8152602001807f416464726573733a2063616c6c20746f206e6f6e2d636f6e747261637400000081525060200191505060405180910390fd5b600060608673ffffffffffffffffffffffffffffffffffffffff1685876040518082805190602001908083835b602083106149355780518252602082019150602081019050602083039250614912565b6001836020036101000a03801982511681845116808217855250505050505090500191505060006040518083038185875af1925050503d8060008114614997576040519150601f19603f3d011682016040523d82523d6000602084013e61499c565b606091505b50915091506149ac828286614aa7565b92505050949350505050565b6149c0614c60565b836020015183106149dd576149dc846002866020015102614a83565b5b83518051602085830101848153818614156149f9576001820183525b5050508390509392505050565b614a0e614c60565b84602001518483011115614a2c57614a2b85600286850102614a83565b5b60006001836101000a0390508551838682010185831982511617815281518588011115614a595784870182525b505085915050949350505050565b600081831115614a7957829050614a7d565b8190505b92915050565b606082600001519050614a968383614317565b50614aa183826144b0565b50505050565b60608315614ab757829050614b6c565b600083511115614aca5782518084602001fd5b816040517f08c379a00000000000000000000000000000000000000000000000000000000081526004018080602001828103825283818151815260200191508051906020019080838360005b83811015614b31578082015181840152602081019050614b16565b50505050905090810190601f168015614b5e5780820380516001836020036101000a031916815260200191505b509250505060405180910390fd5b9392505050565b6040518060a0016040528060008019168152602001600073ffffffffffffffffffffffffffffffffffffffff16815260200160007bffffffffffffffffffffffffffffffffffffffffffffffffffffffff1916815260200160008152602001614bda614c60565b81525090565b828054600181600116156101000203166002900490600052602060002090601f016020900481019282601f10614c2157805160ff1916838001178555614c4f565b82800160010185558215614c4f579182015b82811115614c4e578251825591602001919060010190614c33565b5b509050614c5c9190614c7a565b5090565b604051806040016040528060608152602001600081525090565b614c9c91905b80821115614c98576000816000905550600101614c80565b5090565b9056fe456e756d657261626c655365743a20696e646578206f7574206f6620626f756e64734552433732313a207472616e7366657220746f206e6f6e20455243373231526563656976657220696d706c656d656e7465724f776e61626c653a206e6577206f776e657220697320746865207a65726f2061646472657373756e61626c6520746f207472616e73666572416e6443616c6c20746f206f7261636c654552433732313a207472616e7366657220746f20746865207a65726f2061646472657373416464726573733a20696e73756666696369656e742062616c616e636520666f722063616c6c4552433732313a206f70657261746f7220717565727920666f72206e6f6e6578697374656e7420746f6b656e4552433732313a20617070726f76652063616c6c6572206973206e6f74206f776e6572206e6f7220617070726f76656420666f7220616c6c4552433732313a2062616c616e636520717565727920666f7220746865207a65726f20616464726573734552433732313a206f776e657220717565727920666f72206e6f6e6578697374656e7420746f6b656e456e756d657261626c654d61703a20696e646578206f7574206f6620626f756e64734552433732313a20617070726f76656420717565727920666f72206e6f6e6578697374656e7420746f6b656e4552433732313a207472616e73666572206f6620746f6b656e2074686174206973206e6f74206f776e4552433732314d657461646174613a2055524920717565727920666f72206e6f6e6578697374656e7420746f6b656e4552433732313a20617070726f76616c20746f2063757272656e74206f776e65724552433732313a207472616e736665722063616c6c6572206973206e6f74206f776e6572206e6f7220617070726f766564536f75726365206d75737420626520746865206f7261636c65206f66207468652072657175657374a2646970667358221220e1c753402f2c6c2afa3877accee23299f8134023e572bc506407a6d6b3e1c75164736f6c6343000606003368747470733a2f2f697066732e696f2f697066732f516d616559644a384579647a5547644751476b504e6b53424551556d77526d41763251577131565466736672646b68747470733a2f2f697066732e696f2f697066732f516d634b455631784a51335a4379507344504a487375455a6e463935684e5a66385333724245767a434b776a6f6668747470733a2f2f697066732e696f2f697066732f516d50335470506967325374336e54777669395446414764763659546577356b34706d4331794674614c7746466f68747470733a2f2f697066732e696f2f697066732f516d624e4565536138705a7265705968476e6e6853436d41425a58796d7663375952354a4b465437547559755959",
  "immutableReferences": {},
  "source": "//\n// SPDX-License-Identifier: MIT\n\npragma solidity ^0.6.6;\n\nimport \"@openzeppelin/contracts/token/ERC721/ERC721.sol\";\nimport \"@openzeppelin/contracts/access/Ownable.sol\";\nimport \"@openzeppelin/contracts/utils/Strings.sol\";\nimport \"./interfaces/IWeatherFeed.sol\";\nimport \"@chainlink/contracts/src/v0.6/ChainlinkClient.sol\";\nimport \"@openzeppelin/contracts/token/ERC721/IERC721Receiver.sol\";\n\ncontract Consensus2021ChainlinkWeatherNFT is ERC721, Ownable, ChainlinkClient {\n    using Strings for string;\n    bool public overRide;\n    string public overRideWeather;\n    uint256 public tokenCounter; \n    address public weatherFeedAddress; \n    uint256 public response;\n\n    bytes32 public jobId;\n    address public oracle;\n    uint256 public fee; \n\n    mapping(bytes32 => address) public requestIdToAttemptee;\n    mapping(string => string) public weatherToWeatherURI;\n    mapping(uint256 => string) public overRideTokenIdToWeatherURI;\n    mapping(uint256 => bool) public tokenIdTaken;\n    event attemptedPassword(bytes32 requestId);\n\n    constructor(address _link, address _weatherFeed, address _oracle, bytes32 _jobId, uint256 _fee) public\n        ERC721(\"Consensus2021ChainlinkWeatherNFT\", \"wNFT\")\n    {   \n        if (_link == address(0)) {\n            setPublicChainlinkToken();\n        } else {\n            setChainlinkToken(_link);\n        }\n        weatherFeedAddress = _weatherFeed;\n        weatherToWeatherURI[\"Thunderstorm\"] = \"https://ipfs.io/ipfs/QmP3TpPig2St3nTwvi9TFAGdv6YTew5k4pmC1yFtaLwFFo\";\n        weatherToWeatherURI[\"Drizzle\"] = \"https://ipfs.io/ipfs/QmP3TpPig2St3nTwvi9TFAGdv6YTew5k4pmC1yFtaLwFFo\";\n        weatherToWeatherURI[\"Rain\"] = \"https://ipfs.io/ipfs/QmP3TpPig2St3nTwvi9TFAGdv6YTew5k4pmC1yFtaLwFFo\";\n        weatherToWeatherURI[\"Snow\"] = \"https://ipfs.io/ipfs/QmaeYdJ8EydzUGdGQGkPNkSBEQUmwRmAv2QWq1VTfsfrdk\";\n        weatherToWeatherURI[\"Atmosphere\"] = \"https://ipfs.io/ipfs/QmbNEeSa8pZrepYhGnnhSCmABZXymvc7YR5JKFT7TuYuYY\";\n        weatherToWeatherURI[\"Clear\"] = \"https://ipfs.io/ipfs/QmcKEV1xJQ3ZCyPsDPJHsuEZnF95hNZf8S3rBEvzCKwjof\";\n        weatherToWeatherURI[\"Clouds\"] = \"https://ipfs.io/ipfs/QmbNEeSa8pZrepYhGnnhSCmABZXymvc7YR5JKFT7TuYuYY\";\n        overRide = true;\n        overRideTokenIdToWeatherURI[0] = weatherToWeatherURI[\"Rain\"];\n        overRideTokenIdToWeatherURI[1] = weatherToWeatherURI[\"Clear\"];\n        overRideTokenIdToWeatherURI[2] = weatherToWeatherURI[\"Clouds\"];\n        overRideTokenIdToWeatherURI[3] = weatherToWeatherURI[\"Snow\"];\n        oracle = _oracle;\n        jobId = _jobId;\n        fee = _fee;\n    }\n\n    function mintWeatherNFT() public onlyOwner{\n        _safeMint(msg.sender, tokenCounter);\n        tokenCounter = tokenCounter + 1;\n    }\n\n    function setOverRide(uint256 _overRide) public onlyOwner {\n        if (_overRide == 0){\n            overRide = false;\n        }\n        if (_overRide == 1){\n            overRide = true;\n        }\n    }\n\n    function setWeatherURI(string memory weather, string memory tokenUri, uint256 tokenId) public onlyOwner {\n        weatherToWeatherURI[weather] = tokenUri;\n        overRideTokenIdToWeatherURI[tokenId] = tokenUri;\n    }\n\n    function tokenURI(uint256 tokenId) public view override (ERC721) returns (string memory) {\n        require(_exists(tokenId), \"ERC721Metadata: URI query for nonexistent token\");\n        if(overRide == true){\n            return overRideTokenIdToWeatherURI[tokenId % 4];\n        }\n        return weatherToWeatherURI[IWeatherFeed(weatherFeedAddress).weather()];\n        // snow\n        // rain\n        // sun\n        // clouds\n    }\n\n    function attemptPassword(string memory password) public returns (bytes32 requestId){\n        Chainlink.Request memory req = buildChainlinkRequest(jobId, address(this), this.fulfill.selector);\n        req.add(\"password\", password);\n        requestId = sendChainlinkRequestTo(oracle, req, fee);\n        requestIdToAttemptee[requestId] = msg.sender;\n        emit attemptedPassword(requestId);\n    }\n\n    function fulfill(bytes32 _requestId, uint256 _data) public recordChainlinkFulfillment(_requestId)\n    {   \n        response = _data;\n        if(response == 0){\n            require(tokenIdTaken[0] == false, \"This token is taken!\");\n            safeTransferFrom(ownerOf(0), requestIdToAttemptee[_requestId], 0);\n            tokenIdTaken[0] = true; \n        }\n        if (response == 1){\n                require(tokenIdTaken[1] == false, \"This token is taken!\");\n                safeTransferFrom(ownerOf(1), requestIdToAttemptee[_requestId], 1);\n                tokenIdTaken[1] = true; \n        }\n        if (response == 2){\n                require(tokenIdTaken[2] == false, \"This token is taken!\");\n                safeTransferFrom(ownerOf(2), requestIdToAttemptee[_requestId], 2);\n                tokenIdTaken[2] = true; \n        }\n        if (response == 3){\n                require(tokenIdTaken[3] == false, \"This token is taken!\");\n                safeTransferFrom(ownerOf(3), requestIdToAttemptee[_requestId], 3);\n                tokenIdTaken[3] = true; \n        }\n    }    \n\n    function bytes32ToString(bytes32 _bytes32) public pure returns (string memory) {\n        uint8 i = 0;\n        while(i < 32 && _bytes32[i] != 0) {\n            i++;\n        }\n        bytes memory bytesArray = new bytes(i);\n        for (i = 0; i < 32 && _bytes32[i] != 0; i++) {\n            bytesArray[i] = _bytes32[i];\n        }\n        return string(bytesArray);\n    }\n}\n",
  "sourcePath": "/Users/barnabymenage/Desktop/proj_horror_nft/code_horror_nft/weather-nft/contracts/Consensus2021ChainlinkWeatherNFT.sol",
  "compiler": {
    "name": "solc",
    "version": "0.6.6+commit.6c089d02.Emscripten.clang"
  },
  "schemaVersion": "3.4.4",
  "updatedAt": "2022-01-26T20:43:18.225Z",
  "networkType": "ethereum",
  "devdoc": {
    "methods": {
      "approve(address,uint256)": {
        "details": "See {IERC721-approve}."
      },
      "balanceOf(address)": {
        "details": "See {IERC721-balanceOf}."
      },
      "baseURI()": {
        "details": "Returns the base URI set via {_setBaseURI}. This will be automatically added as a prefix in {tokenURI} to each token's URI, or to the token ID if no specific URI is set for that token ID."
      },
      "getApproved(uint256)": {
        "details": "See {IERC721-getApproved}."
      },
      "isApprovedForAll(address,address)": {
        "details": "See {IERC721-isApprovedForAll}."
      },
      "name()": {
        "details": "See {IERC721Metadata-name}."
      },
      "owner()": {
        "details": "Returns the address of the current owner."
      },
      "ownerOf(uint256)": {
        "details": "See {IERC721-ownerOf}."
      },
      "renounceOwnership()": {
        "details": "Leaves the contract without owner. It will not be possible to call `onlyOwner` functions anymore. Can only be called by the current owner.     * NOTE: Renouncing ownership will leave the contract without an owner, thereby removing any functionality that is only available to the owner."
      },
      "safeTransferFrom(address,address,uint256)": {
        "details": "See {IERC721-safeTransferFrom}."
      },
      "safeTransferFrom(address,address,uint256,bytes)": {
        "details": "See {IERC721-safeTransferFrom}."
      },
      "setApprovalForAll(address,bool)": {
        "details": "See {IERC721-setApprovalForAll}."
      },
      "supportsInterface(bytes4)": {
        "details": "See {IERC165-supportsInterface}.     * Time complexity O(1), guaranteed to always use less than 30 000 gas."
      },
      "symbol()": {
        "details": "See {IERC721Metadata-symbol}."
      },
      "tokenByIndex(uint256)": {
        "details": "See {IERC721Enumerable-tokenByIndex}."
      },
      "tokenOfOwnerByIndex(address,uint256)": {
        "details": "See {IERC721Enumerable-tokenOfOwnerByIndex}."
      },
      "totalSupply()": {
        "details": "See {IERC721Enumerable-totalSupply}."
      },
      "transferFrom(address,address,uint256)": {
        "details": "See {IERC721-transferFrom}."
      },
      "transferOwnership(address)": {
        "details": "Transfers ownership of the contract to a new account (`newOwner`). Can only be called by the current owner."
      }
    }
  },
  "userdoc": {
    "methods": {}
  }
}